:100000000C94BA000C94C4000C94C4000C94C4006A
:100010000C94C4000C94C4000C94C4000C94C40050
:100020000C94C4000C94C4000C94C4000C94C40040
:100030000C94C4000C94C4000C94C4000C94C40030
:100040000C94C4000C94C4000C94C4000C94C40020
:100050000C94C400D200EB0004011D0135013501F0
:1000600035013501350135013501350135013501E0
:1000700035013501350135013501350135013501D0
:1000800035013501350135013501350135013501C0
:1000900035013501D200EB0004011D0142015B0175
:1000A00074018D01A501A501A501A501A501A50169
:1000B000A501A501A501A501A501A501A501A50110
:1000C000A501A501A501A501A501A501A501A50100
:1000D000A501A501A501A501A501A50142015B019D
:1000E00074018D01B101B301B501B701B801B801C7
:1000F000B801B801B801B801B801B801B801B80138
:10010000B801B801B801B801B801B801B801B80127
:10011000B801B801B801B801B801B801B801B80117
:10012000B801B801B101B301B501B701C401C601FD
:10013000C801CA01CB01CB01CB01CB01CB01CB0163
:10014000CB01CB01CB01CB01CB01CB01CB01CB014F
:10015000CB01CB01CB01CB01CB01CB01CB01CB013F
:10016000CB01CB01CB01CB01CB01CB01C401C6013B
:10017000C801CA0111241FBECFE5D8E0DEBFCDBF44
:100180000E947A020C948A020C94000090E0FC0118
:10019000E154F109E432F10508F067C0E65DFF4F74
:1001A0000C948402413059F42AB381E090E002C0FB
:1001B000880F991F6A95E2F7822B8ABB08952AB3AC
:1001C00081E090E002C0880F991F6A95E2F7809560
:1001D00082238ABB0895413059F427B381E090E02F
:1001E00002C0880F991F6A95E2F7822B87BB08959A
:1001F00027B381E090E002C0880F991F6A95E2F76B
:100200008095822387BB0895413059F424B381E05F
:1002100090E002C0880F991F6A95E2F7822B84BB99
:10022000089524B381E090E002C0880F991F6A9579
:10023000E2F78095822384BB0895413059F421B3BD
:1002400081E090E002C0880F991F6A95E2F7822B47
:1002500081BB089521B381E090E002C0880F991F0F
:100260006A95E2F78095822381BB089590E0FC01B6
:10027000E154F109E432F10508F067C0E25BFF4F99
:100280000C948402413059F42BB381E090E002C019
:10029000880F991F6A95E2F7822B8BBB08952BB3C9
:1002A00081E090E002C0880F991F6A95E2F780957F
:1002B00082238BBB0895413059F428B381E090E04C
:1002C00002C0880F991F6A95E2F7822B88BB0895B8
:1002D00028B381E090E002C0880F991F6A95E2F789
:1002E0008095822388BB0895413059F425B381E07D
:1002F00090E002C0880F991F6A95E2F7822B85BBB8
:10030000089525B381E090E002C0880F991F6A9597
:10031000E2F78095822385BB0895413059F422B3DA
:1003200081E090E002C0880F991F6A95E2F7822B66
:1003300082BB089522B381E090E002C0880F991F2C
:100340006A95E2F78095822382BB089590E0FC01D4
:10035000E154F109E432F10558F4EE58FF4F0C94E2
:1003600084026ABB089567BB089564BB089561BBAE
:10037000089590E0FC01E154F109E432F10558F4EC
:10038000EA56FF4F0C9484026BBB089568BB089536
:1003900065BB089562BB089541E050E062E070E003
:1003A00082E490E00E9436018FE99FE00197F1F727
:1003B00000C0000040E050E062E070E082E490E0C5
:1003C0000E9436018FE99FE00197F1F700C000001D
:1003D0000895CF93C82F40E050E060E070E082E4E1
:1003E00090E00E9436016C2F70E081E490E00E9462
:1003F000B9010E94CC018FEC97E00197F1F700C0A2
:100400000000CF9108952FEF81EE94E021508040BD
:100410009040E1F700C000006FEF70E081E490E0F1
:100420000E94A60141E050E062E070E082E490E0CA
:100430000E94C60041E050E061E070E082E490E09C
:100440000E94C60041E050E060E070E082E490E08D
:100450000E94C60040E050E061E070E082E490E07D
:100460000E94360188E30E94E9018FEC97E0019732
:10047000F1F700C0000081E00E94E9018FE19EE4F5
:100480000197F1F700C000008EE00E94E9018FECB7
:1004900097E00197F1F700C0000086E00E94E901B3
:1004A0008FEC97E00197F1F700C000000895CF931B
:1004B000C82F41E050E060E070E082E490E00E94EC
:1004C00036016C2F70E081E490E00E94B9010E9437
:1004D000CC01CF91089587B3806487BB8DB18064D0
:1004E0008DB98DB18F7E8DB908958FB9779BFECF71
:1004F0008FB108950E9403020E946B028FEF0E9449
:1005000075020E945702FACFEE0FFF1F0590F4917B
:08051000E02D0994F894FFCFDF
:00000001FF
