S00B00005350492E737265632D
S11300000C94BA000C94CF000C94CF000C94CF0045
S11300100C94CF000C94CF000C94CF000C94CF0020
S11300200C94CF000C94CF000C94CF000C94CF0010
S11300300C94CF000C94CF000C94CF000C94CF0000
S11300400C94CF000C94CF000C94CF000C94CF00F0
S11300500C94CF00DD00F6000F012801400140019F
S11300604001400140014001400140014001400184
S11300704001400140014001400140014001400174
S11300804001400140014001400140014001400164
S113009040014001DD00F6000F0128014D01660119
S11300A07F019801B001B001B001B001B001B0010D
S11300B0B001B001B001B001B001B001B001B001B4
S11300C0B001B001B001B001B001B001B001B001A4
S11300D0B001B001B001B001B001B0014D01660141
S11300E07F019801BD01D101E501F9010D020D0265
S11300F00D020D020D020D020D020D020D020D0284
S11301000D020D020D020D020D020D020D020D0273
S11301100D020D020D020D020D020D020D020D0263
S11301200D020D02BD01D101E501F9011B023402EA
S11301304D0266027E027E027E027E027E027E0204
S11301407E027E027E027E027E027E027E027E02AB
S11301507E027E027E027E027E027E027E027E029B
S11301607E027E027E027E027E027E021B02340238
S11301704D02660211241FBECFE5D8E0DEBFCDBF1D
S113018010E0A0E6B0E0EEECF6E002C005900D92BF
S1130190A037B107D9F70E9442030C9465030C946D
S11301A0000090E0FC01E154F109E432F10508F0AB
S11301B067C0E65DFF4F0C945F03413059F42AB3E6
S11301C081E090E002C0880F991F6A95E2F7822BC4
S11301D08ABB08952AB381E090E002C0880F991F7A
S11301E06A95E2F7809582238ABB0895413059F4D9
S11301F027B381E090E002C0880F991F6A95E2F767
S1130200822B87BB089527B381E090E002C0880F5A
S1130210991F6A95E2F78095822387BB0895413040
S113022059F424B381E090E002C0880F991F6A95C5
S1130230E2F7822B84BB089524B381E090E002C0EE
S1130240880F991F6A95E2F78095822384BB0895ED
S1130250413059F421B381E090E002C0880F991F26
S11302606A95E2F7822B81BB089521B381E090E087
S113027002C0880F991F6A95E2F78095822381BB9B
S1130280089590E0FC01E154F109E432F10508F02D
S113029067C0E25BFF4F0C945F03413059F42BB30A
S11302A081E090E002C0880F991F6A95E2F7822BE3
S11302B08BBB08952BB381E090E002C0880F991F97
S11302C06A95E2F7809582238BBB0895413059F4F7
S11302D028B381E090E002C0880F991F6A95E2F785
S11302E0822B88BB089528B381E090E002C0880F78
S11302F0991F6A95E2F78095822388BB089541305F
S113030059F425B381E090E002C0880F991F6A95E3
S1130310E2F7822B85BB089525B381E090E002C00B
S1130320880F991F6A95E2F78095822385BB08950B
S1130330413059F422B381E090E002C0880F991F44
S11303406A95E2F7822B82BB089522B381E090E0A4
S113035002C0880F991F6A95E2F78095822382BBB9
S1130360089590E0FC01E154F109E432F10508F04C
S113037054C0EE58FF4F0C945F0349B381E090E002
S11303809C01062E02C0220F331F0A94E2F7842F29
S113039090E08223932302C0959587956A95E2F7AE
S11303A0089546B381E090E09C01062E02C0220F1E
S11303B0331F0A94E2F7842F90E08223932302C030
S11303C0959587956A95E2F7089543B381E090E0A7
S11303D09C01062E02C0220F331F0A94E2F7842FD9
S11303E090E08223932302C0959587956A95E2F75E
S11303F0089540B381E090E09C01062E02C0220FD4
S1130400331F0A94E2F7842F90E08223932302C0DF
S1130410959587956A95E2F7089580E0089590E0B0
S1130420FC01E154F109E432F10508F067C0EA5631
S1130430FF4F0C945F03413059F42BB381E090E0FB
S113044002C0880F991F6A95E2F7822B8BBB08952F
S11304502BB381E090E002C0880F991F6A95E2F700
S1130460809582238BBB0895413059F428B381E0F1
S113047090E002C0880F991F6A95E2F7822B88BB2F
S1130480089528B381E090E002C0880F991F6A950F
S1130490E2F78095822388BB0895413059F425B34F
S11304A081E090E002C0880F991F6A95E2F7822BE1
S11304B085BB089525B381E090E002C0880F991FA1
S11304C06A95E2F78095822385BB0895413059F4FB
S11304D022B381E090E002C0880F991F6A95E2F789
S11304E0822B82BB089522B381E090E002C0880F82
S11304F0991F6A95E2F78095822382BB089541E0B3
S113050060E083E40E94D10041E061E083E40E9462
S1130510D10041E062E083E40E94D10041E063E065
S113052083E40E94D10040E064E083E40E94D100AF
S113053040E065E083E40E94D10040E066E083E4AB
S11305400E94D10040E067E083E40E94D10041E0D2
S113055064E083E40E940F0241E065E083E40E94CA
S11305600F0241E066E083E40E940F0241E067E08D
S113057083E40E940F020895EF92FF920F931F935A
S1130580CF93DF93CDB7DEB760970FB6F894DEBF95
S11305900FBECDBF80E1E0E6F0E0DE0111960190F0
S11305A00D928A95E1F7F12CEE24EA9439C041E0EA
S11305B060E083E40E94410141E061E083E40E9441
S11305C0410141E062E083E40E94410141E063E0D3
S11305D083E40E94410140E06F2D83E40E944101C5
S11305E010E019C064E0610F83E40E94B101082F98
S11305F0811110C0EF2DF0E0EE0FFF1FEE0FFF1F73
S113060081E090E08C0F9D1FE80FF91FE10FF11DB1
S1130610E08003C01F5F143028F3002321F0F3941B
S113062093E09F1520F68E2D60960FB6F894DEBFEA
S11306300FBECDBFDF91CF911F910F91FF90EF902F
S1130640089587B3806187BB87B3806287BB87B314
S1130650806887BB88B3806188BB8DB180648DB9A5
S11306608DB180618DB98DB181608DB98DB18D7F72
S11306708DB9089598B39F7E98BB8FB9779BFECFB1
S11306808FB108950E9421030E947F022FEF34E36B
S11306908CE0215030408040E1F700C000000E940F
S11306A0BC028F3FE1F39FE72AE136E091502040FE
S11306B03040E1F700C000000E943A03F0CFEE0F93
S11106C0FF1F0590F491E02D0994F894FFCFEC
S11306CE3738392F3435362A3132332D41303D2BDC
S9030000FC
